:020000040800F2
:100000007006002029020008390C0008310C000895
:10001000350C0008CF0300086D0D0008000000003B
:100020000000000000000000000000003D0C00087F
:10003000D3030008000000003B0C00083F0C000840
:10004000430200084302000843020008430200087C
:10005000430200084302000843020008430200086C
:10006000430200084302000843020008430200085C
:10007000430200084302000843020008430200084C
:10008000430200084302000843020008430200083C
:10009000430200084302000843020008430200082C
:1000A000430200084302000843020008430200081C
:1000B000430200084302000843020008430200080C
:1000C00043020008430200084302000843020008FC
:1000D00043020008430200084302000843020008EC
:1000E00043020008430200084302000843020008DC
:1000F00043020008430200084302000843020008CC
:1001000043020008430200084302000843020008BB
:1001100043020008430200084302000843020008AB
:10012000430200084302000843020008430200089B
:10013000430200084302000843020008430200088B
:10014000430200084302000843020008430200087B
:10015000430200084302000843020008430200086B
:10016000430200084302000843020008430200085B
:100170004302000843020008430200080000000098
:10018000430200084302000800F002F800F03CF8C7
:100190000AA090E8000C82448344AAF10107DA45E2
:1001A00001D100F031F8AFF2090EBAE80F0013F0F8
:1001B000010F18BFFB1A43F0010318471C0C000085
:1001C0003C0C0000103A24BF78C878C1FAD8520716
:1001D00024BF30C830C144BF04680C6070470000C1
:1001E0000023002400250026103A28BF78C1FBD840
:1001F000520728BF30C148BF0B6070471FB500F0E1
:10020000D9FD1FBD10B510BD00F0A8F81146FFF7CD
:10021000F5FF00F0C9FD00F0C6F803B4FFF7F2FFE8
:1002200003BC00F0CDF800000948804709480047AA
:10023000FEE7FEE7FEE7FEE7FEE7FEE7FEE7FEE796
:10024000FEE7FEE704480549054A064B70470000F3
:10025000090D0008890100087000002070060020C8
:10026000700200207002002053EA020C00F0698046
:100270002DE9F04B4FF00006002B1FBFB3FA83F5BA
:1002800003FA05F424FA05F65E4012BF1643B2FAEB
:1002900082F502FA05F4C5F120051EBF22FA05FC1D
:1002A00044EA0C04203556EA044C4FEA144418BFC3
:1002B000641C4FF000084FF00009904271EB030CF2
:1002C00039D3002919BFB1FA81F701FA07F6B0FA5C
:1002D00080F700FA07F6C7F120071EBF20FA07FCD7
:1002E00046EA0C062037B6FBF4FCA7EB0507103FE7
:1002F00007F01F0BCBF120060CFA0BFB2CFA06F6CD
:1003000044BFB3460026202FA4BF5E464FF0000B2B
:100310005BEA060C08BF4FF0010B19EB0B09ABFBB6
:10032000027C48EB0608C01B06FB02CC0BFB03CC8F
:1003300071EB0C01C1E70B46024641464846BDE859
:10034000F08B13B54FF000004FF00001AFF30080C9
:10035000BDE81C407047704770477047754600F015
:100360002BF8AE4605006946534620F00700854647
:1003700018B020B5FFF766FFBDE820404FF000063B
:100380004FF000074FF000084FF0000B21F007017D
:10039000AC46ACE8C009ACE8C009ACE8C009ACE8C0
:1003A000C0098D46704710B50446AFF30080204663
:1003B000BDE81040FFF731BF004870471000002033
:1003C00001491820ABBEFEE726000200704700BFBF
:1003D000FEE7704700BFFEE701480068000C704769
:1003E000002004E00148006870470000040000207D
:1003F00003480068034909780844014908607047C8
:10040000040000200C00002010B50A48006840F4E9
:100410000070084908600846006840F48060086081
:10042000032000F06FF80F2000F006F800F02AF823
:10043000002010BD003C024070B504460E48007814
:100440004FF47A71B1FBF0F00C490968B1FBF0F59B
:10045000284600F0D3FB08B1012070BD102C07D254
:1004600000222146501E00F00EF80548046001E00D
:100470000120F2E70020F0E70C000020000000203F
:100480000800002070472DE9F05F80460D461646B3
:10049000002700F06DFC074639462A46334601F036
:1004A0000700C0F1070ABAF1040F02D94FF0040A9D
:1004B00001E0C0F1070AD14600F1040ABAF1070FC2
:1004C00002D24FF0000A01E0A0F1030AD4464FF037
:1004D000010A0AFA09FAAAF1010A0AEA020A0AFA60
:1004E0000CFA4FF0010B0BFA0CFBABF1010B0BEA12
:1004F000030B4AEA0B042146404600F041FCBDE8EC
:10050000F09F000000BF00F00702064B19684FF68D
:10051000FF031940044B0B4343EA0221014B1960CE
:1005200000BF70470CED00E00000FA0570B504460E
:100530000D460CB9012070BD5848006800F0070056
:10054000A84209D255490D700846006800F007001E
:10055000A84201D00120EEE7207800F00200022836
:100560001DD1207800F00400042805D14C48006813
:1005700040F4E0504A490860207800F0080008285C
:1005800005D14748006840F4604045490860444848
:10059000006820F0F000A168084341490860207815
:1005A00000F00100A8B36068012807D13C48083872
:1005B0000068C0F34040B8B90120BCE76068022879
:1005C00002D06068032807D1354808380068C0F3B6
:1005D000406048B90120AEE7314808380068C0F3F0
:1005E000400008B90120A6E72D48006820F003006C
:1005F000616808432A490860FFF7F4FE064609E0EF
:10060000FFF7F0FE801B41F28831884202D90320B7
:1006100091E707E02248006800F00C006168B0EB49
:10062000810FEDD11D48006800F00700A84209D9EC
:100630001A490D700846006800F00700A84201D072
:10064000012078E7207800F00400042807D114483E
:10065000006820F4E050E168084311490860207800
:1006600000F00800082808D10D48006820F4604018
:10067000216940EAC1000A49086000F019F80849F8
:100680000968C1F30311074A515CC8400649086074
:1006900006480068FFF7D0FE00204CE7003C02400F
:1006A00008380240BE0D00080000002008000020AD
:1006B0002DE9F047002400250026A14625480068C2
:1006C00000F00C0020B1042805D008283AD105E03C
:1006D000DFF8849039E0DFF8849036E01D48001F91
:1006E000006800F03F041B48001F006800F4800011
:1006F00078B11A481749091F0968C1F38811A0FB8E
:1007000001700146224600233846FFF7ADFD05463D
:100710000EE011480F49091F0968C1F38811A0FBB9
:1007200001700146224600233846FFF79DFD05462D
:100730000848001F0068C0F30140401C4600B5FB9C
:10074000F6F902E0DFF8109000BF00BF4846BDE8B0
:10075000F0870000083802400024F40000127A00FC
:10076000F8B504460CB90120F8BD207800F001006E
:10077000002874D0F948006800F00C0004280DD05F
:10078000F648006800F00C00082813D1F348001F59
:10079000006800F48000B0F5800F0BD1EF480838F6
:1007A0000068C0F34040002859D06068002856D146
:1007B0000120D9E700BF6068B0F5803F08D1E74865
:1007C0000838006840F48030E449083908601EE0C9
:1007D0006068B0F5A02F0DD1E0480838006840F4FB
:1007E0008020DE49083908600846006840F48030FF
:1007F00008600CE0D9480838006820F48030D749F8
:10080000083908600846006820F48020086000BFAE
:10081000606890B1FFF7E6FD054606E0FFF7E2FDF0
:10082000401B642801D903209EE7CC4808380068A3
:10083000C0F340400028F1D011E0FFF7D3FD05469A
:1008400006E0FFF7CFFD401B642801D903208BE7AA
:10085000C24808380068C0F340400028F1D1207831
:1008600000F0020002285FD1BC48006800F00C00D4
:1008700058B1BA48006800F00C0008281CD1B748ED
:10088000001F006800F48000B0B9B4480838006860
:10089000C0F3400020B1E068012801D0012063E7E7
:1008A000AE480838006820F0F800216940EAC1002D
:1008B000AA490839086037E0E06800B30120A84978
:1008C0000860FFF78FFD054606E0FFF78BFD401B34
:1008D000022801D9032047E7A04808380068C0F380
:1008E00040000028F1D09D480838006820F0F8004A
:1008F000216940EAC10099490839086014E00020E4
:1009000097490860FFF76EFD054606E0FFF76AFDB0
:10091000401B022801D9032026E7904808380068C8
:10092000C0F340000028F1D1207800F0080008282A
:100930002CD16069A8B101208A490860FFF752FDF7
:10094000054606E0FFF74EFD401B022801D90320B3
:100950000AE782486C300068C0F340000028F1D0FC
:1009600014E000207F490860FFF73CFD054606E0E3
:10097000FFF738FD401B022801D90320F4E6774831
:100980006C300068C0F340000028F1D1207800F0FE
:100990000400042870D1002770483830006800F047
:1009A000805090B900BF002000906C48383000683B
:1009B00040F080506949383108600846006800F00E
:1009C0008050009000BF00BF01276748006800F416
:1009D0008070B0B96448006840F480706249086073
:1009E000FFF700FD054606E0FFF7FCFC401B022870
:1009F00001D90320B8E65C48006800F48070002844
:100A0000F2D000BFA068012808D1544868300068BF
:100A100040F001005149683108601DE0A0680528D8
:100A20000DD14E486830006840F004004B496831F1
:100A300008600846006840F0010008600CE0474884
:100A40006830006820F001004449683108600846B9
:100A5000006820F00400086000BFA068A8B1FFF79C
:100A6000C1FC054609E0FFF7BDFC401B41F288319F
:100A7000884202D9032077E626E0384868300068CB
:100A8000C0F340000028EED013E0FFF7ABFC0546B2
:100A900008E0FFF7A7FC401B41F28831884201D9EA
:100AA000032061E62D4868300068C0F3400000284C
:100AB000EFD1012F07D129483830006820F080504D
:100AC00026493831086000BFA069002845D0234876
:100AD000006800F00C0008285DD0A069022845D10C
:100AE00000201F490866FFF77DFC054606E0FFF77A
:100AF00079FC401B022801D9032035E61748083845
:100B00000068C0F340600028F1D1D4E90701084330
:100B1000616A40EA81110122A06AC2EB500041EAF9
:100B200000412C20005D41EA00600C49091F08606B
:100B300001200B490866FFF755FC054606E0FFF764
:100B400051FC401B022801D903200DE60348083858
:100B50000068C0F340600028F1D049E00838024046
:100B600000004742800E47420070004000202149AB
:100B70000866FFF737FC054606E0FFF733FC401B2D
:100B8000022801D90320EFE51B480068C0F340604C
:100B90000028F2D12CE0A069012800D1E4E5164834
:100BA000001D0668A069012820D006F48001E069D4
:100BB00081421BD106F03F01206A814216D147F6DF
:100BC000C0703040616AB0EB811F0FD106F4403134
:100BD0000122A06AC2EB5000B1EB004F06D106F033
:100BE00070612C20005DB1EB006F01D00120BBE5EE
:100BF0000020B9E5000047420038024070B50446C5
:100C00002546681EB0F1807F01D301200FE0681EE9
:100C10004FF0E02148610F214FF0FF3000F0B0F8B5
:100C200000204FF0E021886107200861002070BD9E
:100C300000BFFEE700BFFEE770477047704710B582
:100C4000FFF7D6FB10BD000000B593B000BF002039
:100C500001902A48006840F0805028490860084602
:100C6000006800F08050019000BF00BF00BF00206E
:100C700001902348006840F48040214908600846FC
:100C8000006800F48040019000BF00BF0120029086
:100C900000040390022008904105099108210A915F
:100CA0004FF4A8710B9102210C9107210D9102A81C
:100CB000FFF756FD08B1FFF78DFB0F200E900220C5
:100CC0000F90002010904FF4A05011904FF48050DE
:100CD000129005210EA8FFF729FC08B1FFF77AFB57
:100CE000FFF77AFB41F20101884205D1054800680F
:100CF00040F480700349086013B000BD40380240E2
:100D000000700040003C02401448006840F470004D
:100D1000124908601248006840F00100104908605C
:100D200000200F49083108600D4800680D4908404F
:100D30000B4908600C48091D0860081F006820F472
:100D40008020091F0860002005490C3108604FF021
:100D500000600249803908607047000088ED00E0BB
:100D600000380240FFFFF6FE1030002400BFFEE70F
:100D700002480068C0F30220704700000CED00E05C
:100D800010B5002804DB0A07130E054A135406E0C9
:100D90000A07140E034A00F00F031B1FD45410BDA2
:100DA00000E400E018ED00E0FFF72EFBFFF74CFF3A
:100DB00000BFFEE74FF04070E1EE100A7047000000
:100DC00000000000000001020304060708090000FB
:100DD0000000010203040000F80D000800000020DC
:100DE00010000000C4010008080E000810000020D8
:100DF00060060000E00100080024F400000000008C
:080E00001000000001000000D9
:040000050800018965
:00000001FF
